{
  "contractName": "ExerciceSolution",
  "abi": [
    {
      "inputs": [
        {
          "internalType": "contract ERC20Claimable",
          "name": "_claimableERC20",
          "type": "address"
        }
      ],
      "stateMutability": "nonpayable",
      "type": "constructor"
    },
    {
      "inputs": [
        {
          "internalType": "address",
          "name": "",
          "type": "address"
        }
      ],
      "name": "ownedTokens",
      "outputs": [
        {
          "internalType": "uint256",
          "name": "",
          "type": "uint256"
        }
      ],
      "stateMutability": "view",
      "type": "function",
      "constant": true
    },
    {
      "inputs": [],
      "name": "claimTokensOnBehalf",
      "outputs": [],
      "stateMutability": "nonpayable",
      "type": "function"
    },
    {
      "inputs": [
        {
          "internalType": "address",
          "name": "callerAddress",
          "type": "address"
        }
      ],
      "name": "tokensInCustody",
      "outputs": [
        {
          "internalType": "uint256",
          "name": "",
          "type": "uint256"
        }
      ],
      "stateMutability": "nonpayable",
      "type": "function"
    },
    {
      "inputs": [
        {
          "internalType": "uint256",
          "name": "amountToWithdraw",
          "type": "uint256"
        }
      ],
      "name": "withdrawTokens",
      "outputs": [
        {
          "internalType": "uint256",
          "name": "",
          "type": "uint256"
        }
      ],
      "stateMutability": "nonpayable",
      "type": "function"
    },
    {
      "inputs": [
        {
          "internalType": "uint256",
          "name": "amountToDeposit",
          "type": "uint256"
        }
      ],
      "name": "depositTokens",
      "outputs": [
        {
          "internalType": "uint256",
          "name": "",
          "type": "uint256"
        }
      ],
      "stateMutability": "nonpayable",
      "type": "function"
    },
    {
      "inputs": [],
      "name": "getERC20DepositAddress",
      "outputs": [
        {
          "internalType": "address",
          "name": "",
          "type": "address"
        }
      ],
      "stateMutability": "nonpayable",
      "type": "function"
    }
  ],
  "bytecode": "0x608060405234801561001057600080fd5b506040516106bb3803806106bb8339818101604052602081101561003357600080fd5b8101908080519060200190929190505050806000806101000a81548173ffffffffffffffffffffffffffffffffffffffff021916908373ffffffffffffffffffffffffffffffffffffffff16021790555050610627806100946000396000f3fe608060405234801561001057600080fd5b50600436106100625760003560e01c80630776d118146100675780630e4f7f36146100bf57806319fa44cd146100c9578063315a095d14610113578063b12ab40f14610155578063dd49756e146101ad575b600080fd5b6100a96004803603602081101561007d57600080fd5b81019080803573ffffffffffffffffffffffffffffffffffffffff1690602001909291905050506101ef565b6040518082815260200191505060405180910390f35b6100c7610238565b005b6100d1610330565b604051808273ffffffffffffffffffffffffffffffffffffffff1673ffffffffffffffffffffffffffffffffffffffff16815260200191505060405180910390f35b61013f6004803603602081101561012957600080fd5b8101908080359060200190929190505050610335565b6040518082815260200191505060405180910390f35b6101976004803603602081101561016b57600080fd5b81019080803573ffffffffffffffffffffffffffffffffffffffff16906020019092919050505061046d565b6040518082815260200191505060405180910390f35b6101d9600480360360208110156101c357600080fd5b8101908080359060200190929190505050610485565b6040518082815260200191505060405180910390f35b6000600160008373ffffffffffffffffffffffffffffffffffffffff1673ffffffffffffffffffffffffffffffffffffffff168152602001908152602001600020549050919050565b60008060009054906101000a900473ffffffffffffffffffffffffffffffffffffffff1673ffffffffffffffffffffffffffffffffffffffff166348c54b9d6040518163ffffffff1660e01b8152600401602060405180830381600087803b1580156102a357600080fd5b505af11580156102b7573d6000803e3d6000fd5b505050506040513d60208110156102cd57600080fd5b8101908080519060200190929190505050905080600160003373ffffffffffffffffffffffffffffffffffffffff1673ffffffffffffffffffffffffffffffffffffffff1681526020019081526020016000206000828254019250508190555050565b600090565b60008060009054906101000a900473ffffffffffffffffffffffffffffffffffffffff1673ffffffffffffffffffffffffffffffffffffffff1663a9059cbb33846040518363ffffffff1660e01b8152600401808373ffffffffffffffffffffffffffffffffffffffff1673ffffffffffffffffffffffffffffffffffffffff16815260200182815260200192505050602060405180830381600087803b1580156103df57600080fd5b505af11580156103f3573d6000803e3d6000fd5b505050506040513d602081101561040957600080fd5b81019080805190602001909291905050505081600160003373ffffffffffffffffffffffffffffffffffffffff1673ffffffffffffffffffffffffffffffffffffffff16815260200190815260200160002060008282540392505081905550919050565b60016020528060005260406000206000915090505481565b60008060009054906101000a900473ffffffffffffffffffffffffffffffffffffffff1673ffffffffffffffffffffffffffffffffffffffff166323b872dd3330856040518463ffffffff1660e01b8152600401808473ffffffffffffffffffffffffffffffffffffffff1673ffffffffffffffffffffffffffffffffffffffff1681526020018373ffffffffffffffffffffffffffffffffffffffff1673ffffffffffffffffffffffffffffffffffffffff1681526020018281526020019350505050602060405180830381600087803b15801561056357600080fd5b505af1158015610577573d6000803e3d6000fd5b505050506040513d602081101561058d57600080fd5b81019080805190602001909291905050505081600160003373ffffffffffffffffffffffffffffffffffffffff1673ffffffffffffffffffffffffffffffffffffffff1681526020019081526020016000206000828254019250508190555091905056fea264697066735822122023d011fc19a1c197829112f9febb512fa888c4b824d9426d9340dea45c5b396d64736f6c63430006020033",
  "source": "pragma solidity ^0.6.0;\r\n\r\nimport \"./IExerciceSolution.sol\";\r\nimport \"@openzeppelin/contracts/token/ERC20/ERC20.sol\";\r\nimport \"./ERC20Claimable.sol\";\r\n\r\ncontract ExerciceSolution is IExerciceSolution{\r\n\r\n    ERC20Claimable claimableERC20;\r\n    mapping(address => uint) public ownedTokens;\r\n\r\n    // constructor() ERC20(\"LucasCoin\", \"LUC\") public{}\r\n\r\n    constructor(ERC20Claimable _claimableERC20) public{\r\n        claimableERC20 = _claimableERC20;\r\n    }\r\n\r\n\r\n    function claimTokensOnBehalf()override external{\r\n\r\n        // ERC20Claimable claimableToken = ERC20Claimable(0xE70AE39bDaB3c3Df5225E03032D31301E2E71B6b);\r\n        // claimableToken.claimTokens();\r\n        // claimToken.call(abi.encodeWithSignature(\"claimTokens()\"));\r\n\r\n        uint256 claimedTokens = claimableERC20.claimTokens();\r\n        ownedTokens[msg.sender] += claimedTokens;\r\n\r\n    }\r\n\r\n\tfunction tokensInCustody(address callerAddress)override external returns (uint256){\r\n        return ownedTokens[callerAddress];\r\n    }\r\n\r\n\tfunction withdrawTokens(uint256 amountToWithdraw)override external returns (uint256){\r\n        claimableERC20.transfer(msg.sender, amountToWithdraw);\r\n        ownedTokens[msg.sender] -= amountToWithdraw;\r\n    }\r\n\r\n\tfunction depositTokens(uint256 amountToDeposit)override external returns (uint256){\r\n        claimableERC20.transferFrom(msg.sender, address(this), amountToDeposit);\r\n        ownedTokens[msg.sender] += amountToDeposit;\r\n    }\r\n\r\n\tfunction getERC20DepositAddress()override external returns (address){\r\n\r\n    }\r\n\r\n}\r\n",
  "sourcePath": "C:\\Users\\Admin\\OneDrive - De Vinci\\Pictures\\Documents\\Esilv\\A4 - S8\\Decentralized Finance\\ERC20-102-Fork\\erc20-102\\contracts\\ExerciceSolution.sol",
  "compiler": {
    "name": "solc",
    "version": "0.6.2+commit.bacdbe57.Emscripten.clang"
  },
  "schemaVersion": "3.4.11",
  "updatedAt": "2023-01-20T16:48:03.927Z",
  "networkType": "ethereum",
  "devdoc": {
    "methods": {}
  },
  "userdoc": {
    "methods": {}
  }
}